:100000000C9434000C9446000C9446000C9446006A
:100010000C9446000C9446000C9446000C94460048
:100020000C9446000C9446000C9446000C94460038
:100030000C9446000C9446000C9446000C94460028
:100040000C9446000C9446000C9446000C94460018
:100050000C9446000C9446000C9446000C94460008
:100060000C9446000C94460011241FBECFEFD8E03C
:10007000DEBFCDBF21E0A0E0B1E001C01D92A13004
:10008000B207E1F70E9448000C9496000C9400001F
:1000900000D0CDB7DEB78AB1837F8AB98BB18C60CF
:1000A0008BB984B18F6084B9F999FECF84E690E072
:1000B00092BD81BDF89A80B58093000163E021E094
:1000C00030E044E650E0809100014A9927C08F5FFC
:1000D00084301CF48093000102C0109200018091D2
:1000E0000001F90102C0EE0FFF1F8A95E2F7E5B9A2
:1000F000F999FECF52BD41BD8091000180BDFA9AB1
:10010000F99A1A82198289819A81803F9F4FD8F685
:1001100089819A8101969A838983F5CF4B99DFCFA4
:10012000815087FFD7CF60930001D9CFF894FFCFDC
:00000001FF
