:100000000C9434000C943E000C943E000C943E0082
:100010000C943E000C943E000C943E000C943E0068
:100020000C943E000C943E000C943E000C943E0058
:100030000C943E000C943E000C943E000C943E0048
:100040000C943E000C943E000C943E000C943E0038
:100050000C943E000C943E000C943E000C943E0028
:100060000C943E000C943E0011241FBECFEFD8E04C
:10007000DEBFCDBF0E9440000C9461000C940000D4
:1000800000D000D0CDB7DEB784B184B92D9A1C82E0
:100090001B828B819C81019671F485B185B91A828E
:1000A000198289819A81019689F389819A810196C1
:1000B0009A838983F6CF8B819C8101969C838B8365
:0600C000E8CFF894FFCF29
:00000001FF
